:020000040800F2
:1000000070120020CD0100086512000805110008DB
:1000100061120008510C00089D1700080000000044
:10002000000000000000000000000000DF010008E8
:10003000F70E000800000000E3010008F9150008B1
:10004000E7010008E7010008E7010008E7010008F0
:10005000E7010008E7010008E7010008E7010008E0
:10006000E7010008E7010008E7010008550C000857
:10007000E7010008E7010008E7010008E7010008C0
:10008000E7010008E7010008E7010008E7010008B0
:10009000E7010008E7010008E7010008E7010008A0
:1000A000E7010008E7010008E7010008E701000890
:1000B000E7010008E7010008E7010008E701000880
:1000C000E7010008E7010008E7010008E701000870
:1000D000E7010008E7010008E7010008E701000860
:1000E000E7010008E7010008E7010008E701000850
:1000F000E7010008E7010008E7010008E701000840
:10010000E7010008E7010008E7010008E70100082F
:10011000E7010008E7010008E7010008E70100081F
:10012000E7010008E7010008E7010008E70100080F
:1001300000F002F800F03AF80AA090E8000C8244BF
:100140008344AAF10107DA4501D100F02FF8AFF29C
:10015000090EBAE80F0013F0010F18BFFB1A43F0A5
:10016000010318472024000040240000103A24BF57
:1001700078C878C1FAD8520724BF30C830C144BF0C
:1001800004680C607047000000230024002500264E
:10019000103A28BF78C1FBD8520728BF30C148BFEA
:1001A0000B6070471FB51FBD10B510BD00F0CEFB32
:1001B0001146FFF7F7FF01F033FB00F0ECFB03B44F
:1001C000FFF7F2FF03BC00F0EFFB00000948804797
:1001D00009480047FEE7FEE7FEE7FEE7FEE7FEE729
:1001E000FEE7FEE7FEE7FEE704480549054A064B41
:1001F000704700000D16000831010008700C002047
:1002000070120020700E0020700E00202DE9F04FBB
:100210004FF0000C4FF0000301EB1C6EBEF90250D2
:10022000BEF900400EF5807EBEF90290BEF9008056
:100230000EF5807EBEF90270BEF900600EF5807E7C
:10024000BEF902B0BEF900A00EF5807ED044D944BC
:10025000A8EB4A0AA9EB4B0B4FEAA4044FEAA50509
:1002600004EBA60405EBA705A4EB6606A5EB670760
:1002700004EBA80405EBA905A4EB6808A5EB690944
:1002800006EBAB06A7EBAA07A6EB6B0B07EB6A0A1C
:10029000458020F8044B478020F8046BA0F80290BA
:1002A00020F8048BA0F802A020F804BB03F101039E
:1002B00093FAA3FC402BAFD1A0EB82014FF01003C7
:1002C00012090FF2361000F1000006B403EB430CE4
:1002D0006144A2F5803202EB8332B1F90250B1F9E8
:1002E0000040A1EB0301B0F902B0B0F900A000F1A9
:1002F0000400A5EB040E0EFB0BFC0AEB4B0E05FBFA
:100300000ACB04FB0ECAB1F90250B1F90040A1EBCF
:100310000301B0F90290B0F9008000F10400A5EBF0
:10032000040E0EFB09FC08EB490E05FB08C904FB93
:100330000EC8B1F90250B1F90040A1EB0301B0F9C8
:100340000270B0F9006000F10400A5EB040E0EFB92
:1003500007FC06EB470E05FB06C704FB0EC6B1F90A
:100360000250B1F9004001F10001D044D944A8EB9A
:100370004A0AA9EB4B0B4FEAA4044FEAA50504EB8C
:10038000264405EB2745A4EBE636A5EBE73704EB5F
:10039000284405EB2945A4EBE838A5EBE93906EB41
:1003A0002B46A7EB2A47A6EBEB3B07EBEA3A4D803F
:1003B0000C8019444F800E801944A1F80290A1F8D6
:1003C00000801944A1F802A021F804BBB2F58032E4
:1003D00083DA03EB430C6144A2F101025FEA024EAF
:1003E00018BFA0EB0C007FF476AF06BC4FEA830386
:1003F00092087FF46AAFBDE8F08F00400000004033
:100400000000004000005DDD213BA3227E180000BB
:10041000412D7EA5412D0000412D00C000405DDD35
:1004200082E75DDD213B7EA5412D004000000040BC
:10043000000000400000AA2A94126B394606493297
:100440007C0CA8118E2349327C0CA3227E1821F744
:100450007931AA2A9412A8118E235DDD213BA322B3
:100460007E180000412D95C6B13F461A2B1E58EE4E
:100470003735BEB4C53EA8118E235DDD213B63A98F
:100480007138DF089A28B7CDC53E7EA5412D000002
:10049000412D00C0004063A92B1E21F77931BEB465
:1004A000C53EBEB47C0C58EE373561AC213B95C6D9
:1004B000BAF9BAE571383BA737355DDD82E75DDD16
:1004C000213B7EA5412D21F766D756D53F3D3BA761
:1004D0008E23A811C9CAB7CDC53E61AC7E18AA2A21
:1004E000C1C295C6B13FBEB47C0C004000000040C4
:1004F0000000004000001E3BB504693E9201C83C6C
:100500002403EB356409C83C24036B3946066C3080
:10051000060E1E3BB504EB356409AA2A94126B390A
:10052000460649327C0CAE240917AF37D607882E11
:100530008D0F7E1E5D1BEB356409AA2A94122418C8
:100540008C1F1E34F10AB3269015A8118E23493250
:100550007C0CA3227E18140B60276C30060E7E1EC6
:100560005D1B7104FB2A882E8D0F461A2B1EC7FDBA
:100570005A2E9D2C1211FE15E72021F77931AA2A57
:100580009412A8118E2387F05334B2281314480D07
:10059000202602EAE536B3269015DF089A289CE368
:1005A0002B39AE2409177104FB2A5DDD213BA32200
:1005B0007E180000412D4ED7C53C9320EF198FFBCC
:1005C0006C2F78D1153E7E1E5D1B21F77931E2CB71
:1005D0000F3F641CC61CB8F2683395C6B13F461A7B
:1005E0002B1E58EE373597C1FB3F24188C1F02EAAB
:1005F000E536F0BCEC3FFE15E720BAE57138A6B849
:10060000853FD5133D2282E1DB39BEB4C53EA8113A
:100610008E235DDD213B40B1AF3D790FDA244DD90A
:10062000423C2EAE423C480D202656D53F3D8EAB77
:10063000823A140B602778D1153E63A97138DF0820
:100640009A28B7CDC53EB1A71236A906CE2915CA3C
:100650004F3F78A668337104FB2A95C6B13FBCA50D
:1006600076303902212C38C3EC3F7EA5412D0000A5
:10067000412D00C00040BCA5CE29C7FD5A2EF0BCBC
:10068000EC3F78A620268FFB6C2F09BAB13FB1A7AB
:100690003D2257F976304DB74F3F63A92B1E21F706
:1006A0007931BEB4C53E8EABEF19ECF474325EB254
:1006B000153E2EAE9015B8F268332DB03F3D40B1D7
:1006C000121187F053342EAE423CBEB47C0C58EE6F
:1006D000373561AC213BA6B8D6072BEC1236C8AA39
:1006E000DB39F0BC240302EAE53663A9713897C10F
:1006F0006EFEDCE7B03734A8E53695C6BAF9BAE540
:1007000071383BA73735E2CB0FF59CE32B3978A640
:10071000683378D173F082E1DB39EDA579314ED7BA
:10072000EDEB6DDF823A99A56C2F5DDD82E75DDD33
:10073000213B7EA5412D9CE33AE352DBB63B99A5D4
:10074000FB2A02EA19DF4DD9423CEDA59A2887F031
:1007500026DB4ED7C53C78A6202621F766D756D58E
:100760003F3D3BA78E23C7FDDFD363D3AF3D34A806
:10077000E720710494D078D1153E63A92B1E140B89
:100780008CCD94CF723EC8AA5D1BA811C9CAB7CD43
:10079000C53E61AC7E18241850C8E2CB0F3F2EAE88
:1007A00090157E1E25C615CA4F3F2DB09412AE245B
:1007B0004AC451C8853F5EB28D0FAA2AC1C295C6F0
:1007C000B13FBEB47C0C6C308EC1E2C4D43F4DB797
:1007D0006409EB35B1C038C3EC3F09BA46061E3B8D
:1007E0002CC097C1FB3FF0BC240310B54C1084EA29
:1007F000530404D54042C1F1000138BF491E1B42D9
:1008000004D55242C3F1000338BF5B1E00F014F858
:1008100014F0804F04D04042C1F1000138BF491E9E
:1008200014F0004F04D05242C3F1000338BF5B1EE6
:1008300010BD70477047704753EA020C00F06980A2
:100840002DE9F04B4FF00006002B1FBFB3FA83F5E4
:1008500003FA05F424FA05F65E4012BF1643B2FA15
:1008600082F502FA05F4C5F120051EBF22FA05FC47
:1008700044EA0C04203556EA044C4FEA144418BFED
:10088000641C4FF000084FF00009904271EB030C1C
:1008900039D3002919BFB1FA81F701FA07F6B0FA86
:1008A00080F700FA07F6C7F120071EBF20FA07FC01
:1008B00046EA0C062037B6FBF4FCA7EB0507103F11
:1008C00007F01F0BCBF120060CFA0BFB2CFA06F6F7
:1008D00044BFB3460026202FA4BF5E464FF0000B56
:1008E0005BEA060C08BF4FF0010B19EB0B09ABFBE1
:1008F000027C48EB0608C01B06FB02CC0BFB03CCBA
:1009000071EB0C01C1E70B46024641464846BDE883
:10091000F08B13B54FF000004FF00001AFF30080F3
:10092000BDE81C40704710B500F008F8006810BD25
:1009300010B5044600F002F8046010BD004870478E
:100940000C0C0020004870470C0C00207546FFF787
:10095000F9FFAE4605006946534620F0070085467C
:1009600018B020B5FFF740FCBDE820404FF000066E
:100970004FF000074FF000084FF0000B21F0070187
:10098000AC46ACE8C009ACE8C009ACE8C009ACE8CA
:10099000C0098D46704710B50446AFF3008020466D
:1009A000BDE81040FFF70BBC01491820ABBEFEE7C5
:1009B000260002007047000000B587B00121042026
:1009C00000F0C0FC0121480200F0BCFC0120ADF8A1
:1009D000180000208DF81B0003208DF81A0006A9CE
:1009E000204800F089FA204800F056F84FF4004003
:1009F00000F07CFC002001908DF808008DF80900C3
:100A00004FF4002003900020049001208DF8140082
:100A100001A9154800F08EF800230122194612485A
:100A200000F0B0F80121104800F02BF801210E4829
:100A300000F060F801210C4800F018F80A4800F0B6
:100A4000FDF800BF084800F06AF80028FAD106480F
:100A500000F0F9F800BF044800F057F80028FAD178
:100A600007B000BD000801400024014021B18268A8
:100A700042F00102826003E0826822F0010282609B
:100A8000704721B1826842F48072826003E082681C
:100A900022F480728260704710B504461248844286
:100AA00008D10121401500F05DFC0021601500F027
:100AB00059FC17E00D48844208D10121001500F0CF
:100AC00051FC0021201500F04DFC0BE00848844249
:100AD00008D10121C80300F045FC00214FF400407B
:100AE00000F040FC10BD000000240140002801403F
:100AF000003C014021B1826842F48012826003E030
:100B0000826822F4801282607047014600208A6861
:100B100002F004020AB1012000E000207047014603
:100B200000208A6802F008020AB1012000E00020DB
:100B30007047000030B502460020002350680F4C7B
:100B400020400D790C6844EA0524204350609068E9
:100B50000B4C2040D1E902542C434D7944EA450422
:100B600020439060D06A20F470000C7C641EE4B2D4
:100B7000234340EA0350D06230BD0000FFFEF0FF87
:100B8000FDF7F1FFF0B504460D4600200021092DC8
:100B900011DDE068A5F10A0606EB4607072606FA0E
:100BA00007F18843A5F10A0606EB460603FA06F1AB
:100BB0000843E0600CE0206905EB4507072606FACC
:100BC00007F1884305EB450603FA06F10843206167
:100BD000072A0FDA606B561E06EB86071F2606FAF9
:100BE00007F18843561E06EB860605FA06F1084310
:100BF000606322E00D2A0FDA206BD61F06EB860712
:100C00001F2606FA07F18843D61F06EB860605FA6B
:100C100006F10843206310E0E06AA2F10D0606EB3E
:100C200086071F2606FA07F18843A2F10D0606EB98
:100C3000860605FA06F10843E062F0BD816841F0DE
:100C4000080181607047816841F00401816070474C
:100C500000BFFEE710B5022000F010F948B10021F6
:100C6000044800F033FD012003490870022000F021
:100C700045F810BD000400400000002030B58DB0E4
:100C800005460C460121084600F03CFB194800F0DF
:100C90004FF819480290039500200490059406909F
:100CA00080200790400008908000099020200A9042
:100CB00000020B9000200C9002A90E4800F0FDF8F5
:100CC00001208DF8070000208DF805008DF8060042
:100CD0000B208DF8040001A800F0C6FA01220221C1
:100CE000044800F0E1F80121024800F015F80DB0C9
:100CF00030BD0000080002404C24014000F080514B
:100D000011B10349086001E00249486070470000E2
:100D1000040402400000024021B1026842F00102D6
:100D2000026004E002684FF6FE731A4002607047EA
:100D300001684FF6FE7211400160002101604160C0
:100D40008160C1604B49884208D14A4908394968E5
:100D500041F00F01474A083A51608AE04549143191
:100D6000884208D143490839496841F0F001414AB5
:100D7000083A51607DE03F492831884208D13D4919
:100D80000839496841F470613A4A083A516070E0A4
:100D900038493C31884208D136490839496841F41C
:100DA0007041344A083A516063E032495031884218
:100DB00008D130490839496841F470212D4A083A70
:100DC000516056E02B496431884208D129490839DD
:100DD000496841F47001274A083A516049E02549C1
:100DE0007831884208D123490839496841F0706157
:100DF000204A083A51603CE01F49884206D1011F51
:100E0000096841F00F01021F116032E01A491431E4
:100E1000884208D11849091F096841F0F001164AB3
:100E2000121F116025E014492831884208D1124967
:100E3000091F096841F470610F4A121F116018E020
:100E40000D493C31884208D10B49091F096841F41A
:100E50007041094A121F11600BE007495031884266
:100E600007D10549091F096841F47021024A121F80
:100E7000116070470800024008040240014600204B
:100E8000002201F0805313B1054B1A6801E0054BB5
:100E90001A6802EA01030BB1012000E0002070474C
:100EA00000040240000002401AB103680B430360D3
:100EB00002E003688B430360704710B500220268AC
:100EC00047F6F0739A430C6A8B6823430C692343FB
:100ED0004C6923438C692343CC6923434C6A2343E5
:100EE0008C6A23431A430260CB6843600B688360BB
:100EF0004B68C36010BD70472DE9F04102460025E4
:100F00000026002000230024002791F803C00CF0E5
:100F10000F0591F803C00CF0100CBCF1000F03D0CA
:100F200091F802C04CEA050591F800C0BCF1000F31
:100F300031D0146800202BE04FF0010C0CFA00F3C4
:100F4000B1F800C00CEA03069E4220D183004FF0A6
:100F50000F0C0CFA03F7BC4305FA03FC4CEA04043B
:100F600091F803C0BCF1280F06D14FF0010C0CFA28
:100F700000FCC2F814C00AE091F803C0BCF1480FAD
:100F800005D14FF0010C0CFA00FCC2F810C0401C57
:100F90000828D1D31460B1F800C0BCF1FF0F34DDD4
:100FA000546800202EE000F1080C4FF0010808FA08
:100FB0000CF3B1F800C00CEA03069E4221D1830075
:100FC0004FF00F0C0CFA03F7BC4305FA03FC4CEA94
:100FD000040491F803C0BCF1280F05D100F1080CFE
:100FE00008FA0CF8C2F8148091F803C0BCF1480F5D
:100FF00007D100F1080C4FF0010808FA0CF8C2F80C
:101000001080401C0828CED35460BDE8F0814161B7
:1010100070470161704700002DE9F04F8BB000244C
:1010200063E0344830F824000FFA80F9314850F872
:1010300024004FEA204A484601F04AF980464FF022
:10104000874101F05DF907464FF08E4101F05EF8EF
:101050000546504601F03CF980464FF0874101F0CB
:101060004FF907464FF08E4101F050F806463146E1
:10107000304601F045F929460290284601F040F932
:101080000190029900F0E0FF039000F0B1FF0746E5
:1010900000F01AFC0022184BCDE9040100F0C4FD59
:1010A0000022164BCDE9060100F066FCCDE90801EF
:1010B00000F030FC83465CB94FF08E41584601F099
:1010C0001FF9074601F0E4F80D4941F824000AE051
:1010D0004FF08F41584601F013F9074601F0D8F858
:1010E000074941F82400601C84B2802C99DB0BB0C6
:1010F000BDE8F08F0C0800200000F03F00007040B9
:101100000C0A002000BFFEE770B505460C464021E2
:101110000648FFF77CFF284600F034F9204600F02F
:1011200031F940210148FFF774FF70BD000801400C
:1011300070B504460D46601CC6B240210648FFF754
:1011400066FF304600F01EF9284600F01BF94021EA
:101150000148FFF75EFF70BD0008014000B587B091
:101160000121042000F0EEF80121080300F0EAF864
:101170004020ADF8180010208DF81B0003208DF8DA
:101180001A0006A91C48FFF7B7FE40211A48FFF7CE
:1011900040FFA020ADF8180018208DF81B00032098
:1011A0008DF81A0006A91448FFF7A6FE4FF4404038
:1011B000ADF804004FF48270ADF806000020ADF8E1
:1011C0000800ADF80A00ADF80C004FF40070ADF85F
:1011D0000E000820ADF810000020ADF81200072026
:1011E000ADF8140001A9054800F0F3F80121034807
:1011F00000F0D8F807B000BD000801400030014001
:1012000010B50024FFF7AAFF01210C20FFF77CFF97
:1012100000210F20FFF778FF00210920FFF774FF5E
:10122000FF210A20FFF770FF07210B20FFF76CFF5B
:1012300000BF05E000212046FFF77AFF601CC4B222
:10124000082CF7DB002408E0FF212046FFF770FFA1
:101250005A2000F0C3FA601CC4B2082CF4DB10BDA5
:1012600000BFFEE77047000070B5002100230F2289
:10127000C47804B3154C246804F4E064C4F5E06455
:10128000210AC1F10403CA40447804FA03F18478C6
:101290001440214309010E4C0678A155047804F04E
:1012A0001F050124AC4005786D11AD0005F1E02566
:1012B000C5F8004109E0047804F01F050124AC40A2
:1012C000044D0678761145F8264070BD0CED00E01F
:1012D00000E400E080E100E002490143024A1160BD
:1012E000704700000000FA050CED00E00146002008
:1012F000034A506820F440400843506070470000A3
:101300000010024029B1064A52690243044B5A6157
:1013100004E0034A52698243014B5A61704700005E
:101320000010024029B1064AD2690243044BDA6137
:1013300004E0034AD2698243014BDA61704700003E
:101340000010024029B1064A92690243044B9A6197
:1013500004E0034A92698243014B9A61704700009E
:101360000010024029B1064AD2680243044BDA60F9
:1013700004E0034AD2688243014BDA607047000000
:101380000010024010B504462146054800F01FF841
:1013900000BF0221024800F011F80028F9D010BD6A
:1013A0000030014021B1028842F04002028004E096
:1013B00002884FF6BF731A40028070470246002031
:1013C00013890B400BB1012000E0002070478181A0
:1013D000704710B50022028802F441520B884C88F5
:1013E00023438C882343CC8823430C8923434C8993
:1013F00023438C892343CC8923431A430280838B64
:101400004FF2FF74234083830B8A038210BD10B513
:1014100000F002F810BD00000CB500200190009013
:101420003348006840F480303149086000BF3048DC
:10143000006800F4003000900198401C0190009872
:1014400018B90198B0F5A06FF1D12948006800F4EF
:10145000003010B10120009001E0002000900098C1
:10146000012843D12348006840F01000214908605A
:101470000846006820F0030008600846006840F055
:10148000020008601A4840681949486008464068E8
:1014900048600846406840F48060486008464068FC
:1014A00020F47C1048600846406840F4E81048602A
:1014B0000846006840F08070086000BF0C48006873
:1014C00000F000700028F9D00948406820F00300BF
:1014D000074948600846406840F00200486000BF85
:1014E0000348406800F00C000828F9D10CBD00004A
:1014F00000100240002002402DE9F04186B0002695
:1015000000240AE0354830F82400A0F5006000040B
:10151000334941F82400601C84B2FF2CF2DD4FF403
:1015200080722F492F48FEF771FEFFF775FD0024EA
:1015300043E008200021CDE90401029103918021BC
:101540000020CDE90010032000EB8400264951F86B
:101550002000C11707460022134600F089F9C6B2E1
:10156000082E01DD082000E0304606461F480078BE
:1015700008BBFF20B040C043C0B240F00106E5B256
:101580001B48405DB04202DA1948465513E018483E
:10159000405D01280FDD174801780078401C154A8E
:1015A0001070012907DD1248405D40101049485570
:1015B000002011460870601C84B2082CB9DB00249E
:1015C00006E00B4A115DE0B2FFF7B2FD601C84B289
:1015D000082CF6DB06B0BDE8F08100000C0000200E
:1015E0000C0400200C0800200C0A00200900002038
:1015F000010000200A00002070474FF0E020006941
:1016000020F004004FF0E0210861704710B5134846
:10161000006840F001001149086008464068104920
:1016200008400E494860084600680E4908400B49CA
:1016300008600846006820F480200860084640687A
:1016400020F4FE0048604FF41F008860FFF7DFFEC3
:101650004FF000600449086010BD00000010024017
:101660000000FFF8FFFFF6FE08ED00E03EB505467E
:101670000C4601210220FFF755FEADF80450ADF8ED
:1016800000400020ADF80600ADF8020069460848A9
:1016900000F032F82021064800F024F80121044827
:1016A00000F008F80121024800F010F83EBD0000EB
:1016B0000004004021B1028842F08002028004E070
:1016C00002884FF67F731A400280704721B102886A
:1016D00042F00102028004E002884FF6FE731A40D5
:1016E0000280704782884FF68F731A40828082880A
:1016F0000A43828070470000002202881D4B9842F6
:101700000ED01D4B98420BD0B0F1804F08D01B4B30
:10171000984205D01A4B984202D01A4B984204D1F5
:101720004FF68F731A404B881A43174B984207D0D5
:10173000164B984204D04FF6FF431A40CB881A4309
:1017400002808B8883850B8803850A4B98420BD0D7
:10175000094B984208D00E4B984205D00D4B984249
:1017600002D00D4B984201D10B7A0386012383826C
:1017700070470000002C014000340140000400408C
:1017800000080040000C0040001000400014004021
:1017900000400140004401400048014000BFFEE716
:1017A000FF214FF0E022916142F228314143516123
:1017B0001146096941F00101116100BF4FF0E021BC
:1017C000096901F480310029F8D04FF0E02109695E
:1017D00021F001014FF0E0221161704730B503465E
:1017E0000025B3F5E96F03DC1846FFF7D9FF15E0D4
:1017F00004E0A3F5E96083B2681CC5B2B3F5E96FF4
:10180000F7DA002405E04FF4E960FFF7C9FF601C38
:10181000C4B2AC42F7DB1846FFF7C2FF30BD000090
:101820004FF44070FFF758FDFFF7E7FE4FF480716B
:101830000C48FFF723FAFFF7BFF847212720FFF7EF
:1018400015FFFFF7DDFC0CE007480078012808D100
:10185000002005490870FFF74FFE01210348FFF7FC
:1018600035FFF1E70C0000200000002000040040DC
:101870002DE9FF5F8046894614461D46DDE90EAB23
:10188000DDE91067B8EB040369EB0501DDE912201F
:10189000921B60EB0700A3FB02CE01FB02E103FBFE
:1018A0000010CDE900C0BAEB04016BEB05000A465D
:1018B0000346CDE9021060460199FEF796FF8019B4
:1018C000794104B0BDE8F09F2DE9F04106460F468E
:1018D00000F0A8FA041E0D4618BF0120284320F08E
:1018E0000040C0F17F6000F1E040C00F0ED0301C1E
:1018F00018BF0120384320F00040C0F17F6000F1A4
:10190000E040C00F04BF0120FFF712F8204629462F
:10191000BDE8F08121F00042A2F16052B2F5801FD3
:1019200001F0004328BFD2F17F6C0BD95FEA001CA5
:1019300043EAC20242EB507018BF704728BF20F044
:1019400001007047B2F5801FBCBF184670474FEAD0
:10195000410C1CF5001F02D2084600F098BD70B57E
:1019600000F00CFA00000089FFF7F6BF4FF00040CE
:10197000A0F58000704700002DE9C04130B4DFF8C9
:10198000A0C23CEA111418BF3CEA131400F0EC802A
:1019900081EA03051CEA111444EAD57418BF1CEA55
:1019A000131500F0C780A4EB05044FF0004545EA8D
:1019B000C12145EAC32341EA505143EA525304F19D
:1019C0007F74994204F500344FEAC0204FEAC222E6
:1019D00008BF904200F09C804FEA13650FF240165A
:1019E000765D4FEA134506FB05F7C7F1807706FBE6
:1019F00007F74FEAD737A7FB03687642C8F5803868
:101A0000A7FB06CE38BFA8F1010807FB08E64FF098
:101A1000000EA6FB028CE6FB03CEDCF1000CCEF13F
:101A2000004E38BFAEF1010EA6FB0C584FF0000778
:101A30004FF00005E6FB0E87A1FB08C6A0FB07CE12
:101A400016EB0E0645F10005E1FB076515F1E04ECA
:101A50007EBFA4F580345FEA46066D4116F180072B
:101A600045F100054FEA17274FEA066647EA056782
:101A7000A6F1DE46B6F1805F4FEA15251FD938463C
:101A800024F0010C05EBC471BCF1FE6F01EB0C11ED
:101A900002D8F0BCBDE8008124425CBF01F5801E85
:101AA0009EEAC47F02D4F0BCBDE80081244238D451
:101AB000F0BCA1F1C041BDE8004100F0ADB94FEA72
:101AC000D22242EA43524FEAD323A7FB02864FEACF
:101AD000D02040EA415007FB03661EEA0E0F4FEA92
:101AE000D12105FB026658BFA6EB0056B6EB0056A7
:101AF0004FEA520E4EEAC37E18EB0E0E56EB530E13
:101B0000BDD518EB02085E417F1C55F10005B6E714
:101B10004FF480154FF000074FF000064FF000081B
:101B2000ADE7F0BC4FF0000001F1C04101F0004111
:101B3000BDE8008111EA0C1F0CEA131500D00CE07F
:101B400013EA0C1F00F025804FF00000F0BC81EA82
:101B5000030101F00041BDE80081F0BCBDE8004197
:101B600081EA030100F058B9F0BCBDE8004170B54E
:101B700000F004F9097EFC3E00F007B881EA030199
:101B80004FF0000001F00041704781EA030100F0CE
:101B900043B9F0BCBDE800414FF000002149704757
:101BA000FFFDFBF9F7F5F4F2F0EEEDEBE9E8E6E422
:101BB000E3E1E0DEDDDBDAD8D7D5D4D3D1D0CFCDA9
:101BC000CCCBCAC8C7C6C5C4C2C1C0BFBEBDBCBBE2
:101BD000BAB9B8B7B6B5B4B3B2B1B0AFAEADACABDD
:101BE000AAA9A8A8A7A6A5A4A3A3A2A1A09F9F9EB7
:101BF0009D9C9C9B9A999998979796959594939369
:101C0000929191908F8F8E8E8D8C8C8B8B8A8989FF
:101C10008888878786858584848383828281818082
:101C20000000FF070000F87FDFF848C170B51CEA2C
:101C3000111E1EBF1CEA13159EEA0C0F95EA0C0F2D
:101C400000F06F8081EA030423EA4C134EEAD47E4D
:101C500021EA4C1141F4801143F48013AE44A1FBFE
:101C6000024CA0FB0365AEF17F7E361955EB0C05E7
:101C7000A1FB034C4CF10003A0FB021C16EB0C066D
:101C8000654153F10003094218BF46F0010613F401
:101C9000007F0BD14FEA03314FEA0530340341EAAC
:101CA000155140EA16506FF003020AE04FEAC321D3
:101CB0004FEAC520F40241EA555140EA56506FF010
:101CC000020202EB2E4201EB025585EACE710AD0E8
:101CD0005FEA440C18BF24F0004450F1000041F1C9
:101CE000000120EAD47040F2FE7C624500D270BD53
:101CF000A84214BF4FF080444FF04044002E08BF6C
:101D00000024BEF1806FA8BFA1F1C041BDE87040C2
:101D100080F282804FF0000001F1C04101F00041EB
:101D200070479EEA0C0F0CEA131518BF95EA0C0FCA
:101D300006D04FF0000081EA030E0EF0004170BDA6
:101D400000F01CF88900013E00F007B800F009B867
:101D50004FEA430C5FEA5C5C08D081EA030100F0C3
:101D60005BB84FEA410C5FEA5C5CF6D14FF00000D3
:101D7000014970470000FF070000F87F0EF1020ED6
:101D80002EF0030E5EF8046B364205D4012A43EBB5
:101D9000030515F5001F12D8012841EB010C1CF5B5
:101DA000001F0CD80ED14FEAD17C15F5001F0CEBAB
:101DB0004C0C0CF1020C08BF4CEBD37C04E04FF050
:101DC000080C01E04FEAD37C0CEB4C0526FA05F633
:101DD00006F00706B6F1040C06D20EEB860CBDE841
:101DE00070404CF0010C6047DFE80CF0090B020278
:101DF0004FF000414FF00000A1F5002170BD1946E1
:101E00001046012851EB010418BFD4F5001484BF1B
:101E1000002001F0004170BD0808A0F500114FEA54
:101E2000310170472DE9F04101F5801CBCF5001F20
:101E3000C0F2C3804FEA115C21EA0C510CF1FD0C99
:101E400041F480115FEA5C0C0CF5C07C01D34000CA
:101E500049413DA4890241EA905187028E0E0A0C45
:101E6000A45D04FB04F602FB06F6C6F14046A4FBA3
:101E70000662F60D46EA422606FB06F4A4FB0123A1
:101E80005242C3F1404338BF5B1EA6FB024200240E
:101E9000E6FB0324D20B42EA4446A6FB0623A1FB41
:101EA00002E2A3FB07E4A4184FF0000252F1000283
:101EB000E3FB01426442C2F1404E38BFAEF1010E75
:101EC000A6FB04234FF00002E6FB0E32A2FB034602
:101ED0004FF00004B61954F10004E2FB0264A1FBC8
:101EE00006E6A4FB07E816EB08064FF0000858F1D9
:101EF0000008E4FB01687642C8F1405838BFA8F1F9
:101F00000108A2FB06E4A3FB08E52D194FF000042D
:101F100054F10004E2FB0854A1FB05E6A7FB04E82A
:101F200018EB06084FF0000656F10006E1FB0486A8
:101F300018F1200556F10006A809A8F11B08B109FF
:101F400008F03F08B8F10A0F40EA86601CD901EB9F
:101F50000C51BDE8F08100BFFCF5EEE8E2DDD8D31E
:101F6000CFCBC7C3C0BDB9B6B4B1AEACA9A7A5A30A
:101F7000A19F9D9B9A9896959392908F8D8C8B891B
:101F80008887868584838281A0FB006800FB01F23C
:101F900008EB4208B8EB872807D5341858EB010442
:101FA000D5D5401C51F10001D1E7341A78EB01047A
:101FB000CDD4401E71F10001C9E75FEA4C0C5FEA25
:101FC0009C5C0DD105D34FF0000001F00041BDE84D
:101FD000F081BDE8F04170B5FFF7D0FE6DDBFFBECC
:101FE000BDE8F0414FF00000004970470000F87F65
:101FF00043004FEAD30C4FEA3C0C43401FBF40075D
:102000000CF1605113F0FE4F70471CF0006F03D1CC
:1020100000200CF0004170470CF0004343EA507080
:1020200010B540EACC0000F0ECF900BF00000092CF
:102030004FEA0001FFF7F0BE4FF000414FF0000003
:10204000A1F500217047000090EA010F48BF81F020
:10205000004100F12882421A3CBF801A89184FEAD9
:10206000D0524FF07F4C1CEA410FA2EBD15318BF66
:102070009CEA026F00F03B804FF0004C4CEA0020DD
:102080004CEA012121FA03FC10EB0C0C1ED202F1E8
:10209000FF325FEA1C2040EBC25038BF70471CF093
:1020A0007F0F4FEA400C18BFBCF17F4F38BF70471D
:1020B000C3F12003994008BF20F00100BCF17F4F1D
:1020C00038BF7047A0F1C04000F0E1B94FEA3C00D2
:1020D000000A40EBC25028BF1CF0FF0F4FEA400C33
:1020E000E6D018BFBCF17F4F38BF7047EAE79CEAE3
:1020F000026F05D010EA5C0F08BF00F00040704787
:1021000010B500F07EF900BF64FBBE3E4FF47F0CBB
:102110001CEAD0121EBF1CEAD11392EA0C0F93EAFC
:102120000C0F00F0858090EA010F48BF42F48072E6
:1021300040F4000C41F400002CF07F4120F07F407F
:1021400000B58142A2EB03020FF2081CACEB504E2B
:10215000C0F100009EF800E04FEA4E0E00FB0EFCBE
:1021600038BF49004FEA2C1C02F5FA020CFB0EF3B3
:102170004FEACE1E4FEA112C4FEAC1210EEB635EEF
:1021800042EB22420EFB0CFC4FEA1C5300FB0311F6
:102190004FEA112C4FEA01310EFB0CFC4FEADC4CEC
:1021A00000FB0C11C14228BF09184CEB03335DF84A
:1021B00004EB10EB410143EBC250B2F57C0F38BF8A
:1021C000704729D512F0F00F1CBF00F1C04000F09D
:1021D00000407047008182838485868788898B8C44
:1021E0008D8E8F919293959697999A9C9D9FA0A280
:1021F000A3A5A7A8AAACAEB0B2B3B5B7B9BCBEC0D0
:10220000C2C5C7C9CCCED1D4D7D9DCDFE2E6E9EC70
:10221000F0F3F7FAFE0000004FEA400C0CF1807C6E
:10222000BCF17E4F28BF7047B0F1C04000F02FB91D
:1022300090EA010F0CEAD11348BF42F48072624564
:1022400038BF634507D213F47F0F16D080EA010030
:1022500000F00040704710B500F0D3F8097EFC3E56
:1022600000F005B880EA010000F00040704780EA05
:10227000010000F0004000F00AB912F47F0F04BF23
:102280000248704780EA010000F001B90000C07FF9
:10229000C10DD1F19E0206DB4FEA002343F000435B
:1022A00023FA02F07047004207D54FEA4001B1F12E
:1022B000FE4F02D24FF00000704710B500F0A1F8B9
:1022C00049922480002070476FEA20007047000088
:1022D00010F0004148BF4042B0FA80F310FA03F218
:1022E000C3F19D030BD051EAC35101EB12205306F9
:1022F00038BF704700F1010008BF20F001007047AF
:102300004FF47F0C1CEAD0121EBF1CEAD11392EAD4
:102310000C0F93EA0C0F00F0478090EA010F48BFC2
:1023200042F480724FF0004C4CEA00204CEA01214C
:1023300002EB0302A0FB0113A2F50002002918BF63
:1023400043F001035B0028BF4FEA330342EB224214
:102350005FEA132C4CEBC2502EBFBCEB436FB2F5BF
:102360007C0F70474FEA036CBCF1004F08BF20F0B0
:102370000100B2F57C0F38BF70470BD582F0FF0229
:1023800012F5803FC8BF704700F1C040D8BF00F0D1
:102390000040704700F5000C5FEA4C0C48BF7047E6
:1023A000B0F1C04000F073B890EA010F0CEAD1130D
:1023B00048BF42F48072624538BF634504D280EA68
:1023C000010000F00040704710B500F01AF800BF9F
:1023D0008900013E00F007B800F009B85FEA410C3F
:1023E0005FEA1C6C08D080EA010000F050B85FEA98
:1023F000400C5FEA1C6CF6D14FF00040A0F5800065
:1024000070470EF1020E2EF0030E5EF8044B2442CC
:1024100004D44FEA4102B2F17F4F11D84FEA400392
:10242000B3F17F4F0CD80ED14FEAD07CB2F17F4F81
:102430000CEB4C0C0CF1020C08BF4CEBD17C04E013
:102440004FF0080C01E04FEAD17C0CEB4C0324FA6E
:1024500003F404F00704B4F1040C06D20EEB840C70
:10246000BDE810404CF0010C6047DFE80CF00708B5
:1024700002024FF00040A0F5800010BD0846420067
:1024800018BFD2F1807288BF00F0004010BDFF215C
:1024900041EAD050C005704790EA010F48BF81F073
:1024A00000413FF5D8AD421A04D882F00042A0EBBB
:1024B000020011444FEAD0524FF07F4C1CEA410F0A
:1024C000A2EBD15318BF9CEA026F4AD04FF0004CE8
:1024D0004CEA00204CEA012121FA03FCB0EB0C0C81
:1024E0000FD412F0FE0F36D05FEA4C001DD500125B
:1024F00040EBC25038BF70471CF03F0F18BF704709
:102500000BE0A2F101025FEA1C2040EBC25038BF91
:1025100070471CF07F0F18BF7047C3F1200399402C
:1025200014BF401E20F00100704780084FEA1223BC
:1025300008BF7047B0FA80FCA2EB0C02CCF1280C6B
:1025400060FA0CF093EA122F04BF00EBC250704700
:102550004FEAC3707047130A5FEADC1008BF704788
:10256000F6E79CEA026F04D010EA5C0F08BF002077
:10257000704710B5FFF745FF40DFF63E81F00040A1
:1025800070470000A4250008000000200C00000097
:102590006C010008B02500080C0000206412000047
:1025A000880100080000000000000000000000009A
:0400000508000131BD
:00000001FF
